{
  "transactions": [
    {
      "hash": "0x3e25cd9d61fa359929df066355d2f60f1d0c96241e6838eaf9ee24ae14407f14",
      "transactionType": "CALL",
      "contractName": null,
      "contractAddress": "0x607c1fd9fd338ec825799a1068551ce19cacbe52",
      "function": "approve(address,uint256)",
      "arguments": [
        "0x000000000022D473030F116dDEE9F6B43aC78BA3",
        "115792089237316195423570985008687907853269984665640564039457584007913129639935"
      ],
      "transaction": {
        "from": "0x7da694e01e71bea0f2cf836f64f8959add5b33ba",
        "to": "0x607c1fd9fd338ec825799a1068551ce19cacbe52",
        "gas": "0x10c4a",
        "value": "0x0",
        "input": "0x095ea7b3000000000000000000000000000000000022d473030f116ddee9f6b43ac78ba3ffffffffffffffffffffffffffffffffffffffffffffffffffffffffffffffff",
        "nonce": "0x68",
        "chainId": "0xaa36a7"
      },
      "additionalContracts": [],
      "isFixedGasLimit": false
    },
    {
      "hash": "0x4aba91507f19bca1648213b421d7851446401871a8484d17250f0d95d1fbeda5",
      "transactionType": "CALL",
      "contractName": null,
      "contractAddress": "0x000000000022d473030f116ddee9f6b43ac78ba3",
      "function": "approve(address,address,uint160,uint48)",
      "arguments": [
        "0x607c1FD9FD338EC825799A1068551CE19CACBe52",
        "0x429ba70129df741B2Ca2a85BC3A2a3328e5c09b4",
        "1461501637330902918203684832716283019655932542975",
        "281474976710655"
      ],
      "transaction": {
        "from": "0x7da694e01e71bea0f2cf836f64f8959add5b33ba",
        "to": "0x000000000022d473030f116ddee9f6b43ac78ba3",
        "gas": "0x1112d",
        "value": "0x0",
        "input": "0x87517c45000000000000000000000000607c1fd9fd338ec825799a1068551ce19cacbe52000000000000000000000000429ba70129df741b2ca2a85bc3a2a3328e5c09b4000000000000000000000000ffffffffffffffffffffffffffffffffffffffff0000000000000000000000000000000000000000000000000000ffffffffffff",
        "nonce": "0x69",
        "chainId": "0xaa36a7"
      },
      "additionalContracts": [],
      "isFixedGasLimit": false
    },
    {
      "hash": "0x56a7cb19f5ae4c9050ce9ab00bb7193ae3eb0cc7142710abe8d1b0236470336f",
      "transactionType": "CALL",
      "contractName": null,
      "contractAddress": "0x7b79995e5f793a07bc00c21412e50ecae098e7f9",
      "function": "approve(address,uint256)",
      "arguments": [
        "0x000000000022D473030F116dDEE9F6B43aC78BA3",
        "115792089237316195423570985008687907853269984665640564039457584007913129639935"
      ],
      "transaction": {
        "from": "0x7da694e01e71bea0f2cf836f64f8959add5b33ba",
        "to": "0x7b79995e5f793a07bc00c21412e50ecae098e7f9",
        "gas": "0xf9b8",
        "value": "0x0",
        "input": "0x095ea7b3000000000000000000000000000000000022d473030f116ddee9f6b43ac78ba3ffffffffffffffffffffffffffffffffffffffffffffffffffffffffffffffff",
        "nonce": "0x6a",
        "chainId": "0xaa36a7"
      },
      "additionalContracts": [],
      "isFixedGasLimit": false
    },
    {
      "hash": "0xd44008d098712cbdadf9df77d24f2c71a2623928dec4c684c3c9e50f56130bca",
      "transactionType": "CALL",
      "contractName": null,
      "contractAddress": "0x000000000022d473030f116ddee9f6b43ac78ba3",
      "function": "approve(address,address,uint160,uint48)",
      "arguments": [
        "0x7b79995e5f793A07Bc00c21412e50Ecae098E7f9",
        "0x429ba70129df741B2Ca2a85BC3A2a3328e5c09b4",
        "1461501637330902918203684832716283019655932542975",
        "281474976710655"
      ],
      "transaction": {
        "from": "0x7da694e01e71bea0f2cf836f64f8959add5b33ba",
        "to": "0x000000000022d473030f116ddee9f6b43ac78ba3",
        "gas": "0x101ee",
        "value": "0x0",
        "input": "0x87517c450000000000000000000000007b79995e5f793a07bc00c21412e50ecae098e7f9000000000000000000000000429ba70129df741b2ca2a85bc3a2a3328e5c09b4000000000000000000000000ffffffffffffffffffffffffffffffffffffffff0000000000000000000000000000000000000000000000000000ffffffffffff",
        "nonce": "0x6b",
        "chainId": "0xaa36a7"
      },
      "additionalContracts": [],
      "isFixedGasLimit": false
    },
    {
      "hash": "0x9452189132761aab1351dcd702471b07e12406bb0f617d06babaa255f77a2c87",
      "transactionType": "CALL",
      "contractName": null,
      "contractAddress": "0x429ba70129df741b2ca2a85bc3a2a3328e5c09b4",
      "function": "multicall(bytes[])",
      "arguments": [
        "[0xf7020405000000000000000000000000607c1fd9fd338ec825799a1068551ce19cacbe520000000000000000000000007b79995e5f793a07bc00c21412e50ecae098e7f90000000000000000000000000000000000000000000000000000000000000bb8000000000000000000000000000000000000000000000000000000000000003c0000000000000000000000000000000000000000000000000000000000000000000000000000000000000000000000000000000100000000000000000000000000000000000000000000000000000000000000000000000000000000000000e00000000000000000000000000000000000000000000000000000000000000000, 0xdd46508f00000000000000000000000000000000000000000000000000000000000000400000000000000000000000000000000000000000000000000000000069887e500000000000000000000000000000000000000000000000000000000000000400000000000000000000000000000000000000000000000000000000000000004000000000000000000000000000000000000000000000000000000000000000800000000000000000000000000000000000000000000000000000000000000004020d14140000000000000000000000000000000000000000000000000000000000000000000000000000000000000000000000000000000000000000000000040000000000000000000000000000000000000000000000000000000000000080000000000000000000000000000000000000000000000000000000000000024000000000000000000000000000000000000000000000000000000000000002a0000000000000000000000000000000000000000000000000000000000000030000000000000000000000000000000000000000000000000000000000000001a0000000000000000000000000607c1fd9fd338ec825799a1068551ce19cacbe520000000000000000000000007b79995e5f793a07bc00c21412e50ecae098e7f90000000000000000000000000000000000000000000000000000000000000bb8000000000000000000000000000000000000000000000000000000000000003c0000000000000000000000000000000000000000000000000000000000000000ffffffffffffffffffffffffffffffffffffffffffffffffffffffffffff5038000000000000000000000000000000000000000000000000000000000000afc80000000000000000000000000000000000000000000000000027b69f212163ed0000000000000000000000000000000000000000000000056bc75e2d63100001000000000000000000000000000000000000000000000000002386f26fc100010000000000000000000000001804c8ab1f12e6bbf3894d4083f33e07309d1f38000000000000000000000000000000000000000000000000000000000000018000000000000000000000000000000000000000000000000000000000000000000000000000000000000000000000000000000000000000000000000000000040000000000000000000000000607c1fd9fd338ec825799a1068551ce19cacbe520000000000000000000000007b79995e5f793a07bc00c21412e50ecae098e7f90000000000000000000000000000000000000000000000000000000000000040000000000000000000000000607c1fd9fd338ec825799a1068551ce19cacbe520000000000000000000000001804c8ab1f12e6bbf3894d4083f33e07309d1f3800000000000000000000000000000000000000000000000000000000000000400000000000000000000000007b79995e5f793a07bc00c21412e50ecae098e7f90000000000000000000000001804c8ab1f12e6bbf3894d4083f33e07309d1f38]"
      ],
      "transaction": {
        "from": "0x7da694e01e71bea0f2cf836f64f8959add5b33ba",
        "to": "0x429ba70129df741b2ca2a85bc3a2a3328e5c09b4",
        "gas": "0x8b6cb",
        "value": "0x0",
        "input": "0xac9650d800000000000000000000000000000000000000000000000000000000000000200000000000000000000000000000000000000000000000000000000000000002000000000000000000000000000000000000000000000000000000000000004000000000000000000000000000000000000000000000000000000000000001800000000000000000000000000000000000000000000000000000000000000104f7020405000000000000000000000000607c1fd9fd338ec825799a1068551ce19cacbe520000000000000000000000007b79995e5f793a07bc00c21412e50ecae098e7f90000000000000000000000000000000000000000000000000000000000000bb8000000000000000000000000000000000000000000000000000000000000003c0000000000000000000000000000000000000000000000000000000000000000000000000000000000000000000000000000000100000000000000000000000000000000000000000000000000000000000000000000000000000000000000e00000000000000000000000000000000000000000000000000000000000000000000000000000000000000000000000000000000000000000000000000000000000000000000000000000000000000000000000000000000000000464dd46508f00000000000000000000000000000000000000000000000000000000000000400000000000000000000000000000000000000000000000000000000069887e500000000000000000000000000000000000000000000000000000000000000400000000000000000000000000000000000000000000000000000000000000004000000000000000000000000000000000000000000000000000000000000000800000000000000000000000000000000000000000000000000000000000000004020d14140000000000000000000000000000000000000000000000000000000000000000000000000000000000000000000000000000000000000000000000040000000000000000000000000000000000000000000000000000000000000080000000000000000000000000000000000000000000000000000000000000024000000000000000000000000000000000000000000000000000000000000002a0000000000000000000000000000000000000000000000000000000000000030000000000000000000000000000000000000000000000000000000000000001a0000000000000000000000000607c1fd9fd338ec825799a1068551ce19cacbe520000000000000000000000007b79995e5f793a07bc00c21412e50ecae098e7f90000000000000000000000000000000000000000000000000000000000000bb8000000000000000000000000000000000000000000000000000000000000003c0000000000000000000000000000000000000000000000000000000000000000ffffffffffffffffffffffffffffffffffffffffffffffffffffffffffff5038000000000000000000000000000000000000000000000000000000000000afc80000000000000000000000000000000000000000000000000027b69f212163ed0000000000000000000000000000000000000000000000056bc75e2d63100001000000000000000000000000000000000000000000000000002386f26fc100010000000000000000000000001804c8ab1f12e6bbf3894d4083f33e07309d1f38000000000000000000000000000000000000000000000000000000000000018000000000000000000000000000000000000000000000000000000000000000000000000000000000000000000000000000000000000000000000000000000040000000000000000000000000607c1fd9fd338ec825799a1068551ce19cacbe520000000000000000000000007b79995e5f793a07bc00c21412e50ecae098e7f90000000000000000000000000000000000000000000000000000000000000040000000000000000000000000607c1fd9fd338ec825799a1068551ce19cacbe520000000000000000000000001804c8ab1f12e6bbf3894d4083f33e07309d1f3800000000000000000000000000000000000000000000000000000000000000400000000000000000000000007b79995e5f793a07bc00c21412e50ecae098e7f90000000000000000000000001804c8ab1f12e6bbf3894d4083f33e07309d1f3800000000000000000000000000000000000000000000000000000000",
        "nonce": "0x6c",
        "chainId": "0xaa36a7"
      },
      "additionalContracts": [],
      "isFixedGasLimit": false
    }
  ],
  "receipts": [
    {
      "status": "0x1",
      "cumulativeGasUsed": "0x83ac7a",
      "logs": [
        {
          "address": "0x607c1fd9fd338ec825799a1068551ce19cacbe52",
          "topics": [
            "0x8c5be1e5ebec7d5bd14f71427d1e84f3dd0314c0f7b2291e5b200ac8c7c3b925",
            "0x0000000000000000000000007da694e01e71bea0f2cf836f64f8959add5b33ba",
            "0x000000000000000000000000000000000022d473030f116ddee9f6b43ac78ba3"
          ],
          "data": "0xffffffffffffffffffffffffffffffffffffffffffffffffffffffffffffffff",
          "blockHash": "0x9976f072126e652211d9079507dffdad20eaaf3365ca32aaedd7654d9f8c0702",
          "blockNumber": "0x9be68c",
          "blockTimestamp": "0x69887070",
          "transactionHash": "0x3e25cd9d61fa359929df066355d2f60f1d0c96241e6838eaf9ee24ae14407f14",
          "transactionIndex": "0x4f",
          "logIndex": "0xb2",
          "removed": false
        }
      ],
      "logsBloom": "0x00000000000000000000000000000000000000000000000000000000000000000000000000000000000000000000000000000000800000000000000000200000000000000000000000004000000000000000000000000800000000000000000000000000000000000000000000000000000000000000000000000000000000000000000000000000000000800000000000000000000000000000000000000000020000000000000000000000000000000000000000000000000000200000000000002000000000000000000000000000000000000010002000000000000000000010000000000000000000000000000000000000000000000000000002000000",
      "type": "0x2",
      "transactionHash": "0x3e25cd9d61fa359929df066355d2f60f1d0c96241e6838eaf9ee24ae14407f14",
      "transactionIndex": "0x4f",
      "blockHash": "0x9976f072126e652211d9079507dffdad20eaaf3365ca32aaedd7654d9f8c0702",
      "blockNumber": "0x9be68c",
      "gasUsed": "0xb773",
      "effectiveGasPrice": "0x3ffc81f0",
      "from": "0x7da694e01e71bea0f2cf836f64f8959add5b33ba",
      "to": "0x607c1fd9fd338ec825799a1068551ce19cacbe52",
      "contractAddress": null
    },
    {
      "status": "0x1",
      "cumulativeGasUsed": "0x846744",
      "logs": [
        {
          "address": "0x000000000022d473030f116ddee9f6b43ac78ba3",
          "topics": [
            "0xda9fa7c1b00402c17d0161b249b1ab8bbec047c5a52207b9c112deffd817036b",
            "0x0000000000000000000000007da694e01e71bea0f2cf836f64f8959add5b33ba",
            "0x000000000000000000000000607c1fd9fd338ec825799a1068551ce19cacbe52",
            "0x000000000000000000000000429ba70129df741b2ca2a85bc3a2a3328e5c09b4"
          ],
          "data": "0x000000000000000000000000ffffffffffffffffffffffffffffffffffffffff0000000000000000000000000000000000000000000000000000ffffffffffff",
          "blockHash": "0x9976f072126e652211d9079507dffdad20eaaf3365ca32aaedd7654d9f8c0702",
          "blockNumber": "0x9be68c",
          "blockTimestamp": "0x69887070",
          "transactionHash": "0x4aba91507f19bca1648213b421d7851446401871a8484d17250f0d95d1fbeda5",
          "transactionIndex": "0x50",
          "logIndex": "0xb3",
          "removed": false
        }
      ],
      "logsBloom": "0x00010000000000000000000000000000000000000000000000000000000000000000000000000040080000000000000000000000000000000000000000080000000000000000000000000000000000000000000100000000000000000000000000000000000000000000000000000000000000000000000000000800000000000020000000000000000000800000000000000000000000000000000000000000000000000000000000000000000000000000000000000000000000080000000000002000001000000000000000000000000000000000002040000000000000000080000000000000000000000000000000000000000000000000000000000400",
      "type": "0x2",
      "transactionHash": "0x4aba91507f19bca1648213b421d7851446401871a8484d17250f0d95d1fbeda5",
      "transactionIndex": "0x50",
      "blockHash": "0x9976f072126e652211d9079507dffdad20eaaf3365ca32aaedd7654d9f8c0702",
      "blockNumber": "0x9be68c",
      "gasUsed": "0xbaca",
      "effectiveGasPrice": "0x3ffc81f0",
      "from": "0x7da694e01e71bea0f2cf836f64f8959add5b33ba",
      "to": "0x000000000022d473030f116ddee9f6b43ac78ba3",
      "contractAddress": null
    },
    {
      "status": "0x1",
      "cumulativeGasUsed": "0x851c10",
      "logs": [
        {
          "address": "0x7b79995e5f793a07bc00c21412e50ecae098e7f9",
          "topics": [
            "0x8c5be1e5ebec7d5bd14f71427d1e84f3dd0314c0f7b2291e5b200ac8c7c3b925",
            "0x0000000000000000000000007da694e01e71bea0f2cf836f64f8959add5b33ba",
            "0x000000000000000000000000000000000022d473030f116ddee9f6b43ac78ba3"
          ],
          "data": "0xffffffffffffffffffffffffffffffffffffffffffffffffffffffffffffffff",
          "blockHash": "0x9976f072126e652211d9079507dffdad20eaaf3365ca32aaedd7654d9f8c0702",
          "blockNumber": "0x9be68c",
          "blockTimestamp": "0x69887070",
          "transactionHash": "0x56a7cb19f5ae4c9050ce9ab00bb7193ae3eb0cc7142710abe8d1b0236470336f",
          "transactionIndex": "0x51",
          "logIndex": "0xb4",
          "removed": false
        }
      ],
      "logsBloom": "0x00000000000000000000000000000000000000000000000000000004000000000000000000000000000000000000000000000000800000000000000000200000000000000000000000004000000000000000000000000800000000000000000000000000000000000000000000000000000000000000000000000000000000000000000000000000000000800000000000000000000000000000000000000000020000000000000000000000000000080000000000000000000000000000000000002002000000000000000000000000000000000000002000000000000000000010000000000000000000000000000000000000000000000000000000000000",
      "type": "0x2",
      "transactionHash": "0x56a7cb19f5ae4c9050ce9ab00bb7193ae3eb0cc7142710abe8d1b0236470336f",
      "transactionIndex": "0x51",
      "blockHash": "0x9976f072126e652211d9079507dffdad20eaaf3365ca32aaedd7654d9f8c0702",
      "blockNumber": "0x9be68c",
      "gasUsed": "0xb4cc",
      "effectiveGasPrice": "0x3ffc81f0",
      "from": "0x7da694e01e71bea0f2cf836f64f8959add5b33ba",
      "to": "0x7b79995e5f793a07bc00c21412e50ecae098e7f9",
      "contractAddress": null
    },
    {
      "status": "0x1",
      "cumulativeGasUsed": "0x85d6ce",
      "logs": [
        {
          "address": "0x000000000022d473030f116ddee9f6b43ac78ba3",
          "topics": [
            "0xda9fa7c1b00402c17d0161b249b1ab8bbec047c5a52207b9c112deffd817036b",
            "0x0000000000000000000000007da694e01e71bea0f2cf836f64f8959add5b33ba",
            "0x0000000000000000000000007b79995e5f793a07bc00c21412e50ecae098e7f9",
            "0x000000000000000000000000429ba70129df741b2ca2a85bc3a2a3328e5c09b4"
          ],
          "data": "0x000000000000000000000000ffffffffffffffffffffffffffffffffffffffff0000000000000000000000000000000000000000000000000000ffffffffffff",
          "blockHash": "0x9976f072126e652211d9079507dffdad20eaaf3365ca32aaedd7654d9f8c0702",
          "blockNumber": "0x9be68c",
          "blockTimestamp": "0x69887070",
          "transactionHash": "0x9452189132761aab1351dcd702471b07e12406bb0f617d06babaa255f77a2c87",
          "transactionIndex": "0x52",
          "logIndex": "0xb5",
          "removed": false
        }
      ],
      "logsBloom": "0x00010000000000000000000000000000000000000000000000000000000000000000000000000042080000000000000000000000000000000000000000080000000000000000000000000040000000000000004000000000000000000000000000000000000000000000000000000000000000000000000000000800000000000020000000000000000000800000000000000000000000000000000000000000000000000000000000000000000000000000000000000000000000080000000000002000000000000000000000000000000000000000002040000000000000000000000000000000000000000000000000000000000000000000000000000400",
      "type": "0x2",
      "transactionHash": "0x9452189132761aab1351dcd702471b07e12406bb0f617d06babaa255f77a2c87",
      "transactionIndex": "0x52",
      "blockHash": "0x9976f072126e652211d9079507dffdad20eaaf3365ca32aaedd7654d9f8c0702",
      "blockNumber": "0x9be68c",
      "gasUsed": "0xbabe",
      "effectiveGasPrice": "0x3ffc81f0",
      "from": "0x7da694e01e71bea0f2cf836f64f8959add5b33ba",
      "to": "0x000000000022d473030f116ddee9f6b43ac78ba3",
      "contractAddress": null
    },
    {
      "status": "0x1",
      "cumulativeGasUsed": "0x8c25dd",
      "logs": [
        {
          "address": "0x429ba70129df741b2ca2a85bc3a2a3328e5c09b4",
          "topics": [
            "0xddf252ad1be2c89b69c2b068fc378daa952ba7f163c4a11628f55a4df523b3ef",
            "0x0000000000000000000000000000000000000000000000000000000000000000",
            "0x0000000000000000000000001804c8ab1f12e6bbf3894d4083f33e07309d1f38",
            "0x0000000000000000000000000000000000000000000000000000000000005aa4"
          ],
          "data": "0x",
          "blockHash": "0x9976f072126e652211d9079507dffdad20eaaf3365ca32aaedd7654d9f8c0702",
          "blockNumber": "0x9be68c",
          "blockTimestamp": "0x69887070",
          "transactionHash": "0xd44008d098712cbdadf9df77d24f2c71a2623928dec4c684c3c9e50f56130bca",
          "transactionIndex": "0x53",
          "logIndex": "0xb6",
          "removed": false
        },
        {
          "address": "0xe03a1074c86cfedd5c142c4f04f1a1536e203543",
          "topics": [
            "0xf208f4912782fd25c7f114ca3723a2d5dd6f3bcc3ac8db5af63baa85f711d5ec",
            "0xe5520bd37fe51be4fd6b106f76240a885de8ad696f9900d98f88db920d15934f",
            "0x000000000000000000000000429ba70129df741b2ca2a85bc3a2a3328e5c09b4"
          ],
          "data": "0xffffffffffffffffffffffffffffffffffffffffffffffffffffffffffff5038000000000000000000000000000000000000000000000000000000000000afc80000000000000000000000000000000000000000000000000027b69f212163ed0000000000000000000000000000000000000000000000000000000000005aa4",
          "blockHash": "0x9976f072126e652211d9079507dffdad20eaaf3365ca32aaedd7654d9f8c0702",
          "blockNumber": "0x9be68c",
          "blockTimestamp": "0x69887070",
          "transactionHash": "0xd44008d098712cbdadf9df77d24f2c71a2623928dec4c684c3c9e50f56130bca",
          "transactionIndex": "0x53",
          "logIndex": "0xb7",
          "removed": false
        },
        {
          "address": "0x607c1fd9fd338ec825799a1068551ce19cacbe52",
          "topics": [
            "0xddf252ad1be2c89b69c2b068fc378daa952ba7f163c4a11628f55a4df523b3ef",
            "0x0000000000000000000000007da694e01e71bea0f2cf836f64f8959add5b33ba",
            "0x000000000000000000000000e03a1074c86cfedd5c142c4f04f1a1536e203543"
          ],
          "data": "0x000000000000000000000000000000000000000000000000002386f26fc10000",
          "blockHash": "0x9976f072126e652211d9079507dffdad20eaaf3365ca32aaedd7654d9f8c0702",
          "blockNumber": "0x9be68c",
          "blockTimestamp": "0x69887070",
          "transactionHash": "0xd44008d098712cbdadf9df77d24f2c71a2623928dec4c684c3c9e50f56130bca",
          "transactionIndex": "0x53",
          "logIndex": "0xb8",
          "removed": false
        },
        {
          "address": "0x7b79995e5f793a07bc00c21412e50ecae098e7f9",
          "topics": [
            "0xddf252ad1be2c89b69c2b068fc378daa952ba7f163c4a11628f55a4df523b3ef",
            "0x0000000000000000000000007da694e01e71bea0f2cf836f64f8959add5b33ba",
            "0x000000000000000000000000e03a1074c86cfedd5c142c4f04f1a1536e203543"
          ],
          "data": "0x000000000000000000000000000000000000000000000000002386f26fc10000",
          "blockHash": "0x9976f072126e652211d9079507dffdad20eaaf3365ca32aaedd7654d9f8c0702",
          "blockNumber": "0x9be68c",
          "blockTimestamp": "0x69887070",
          "transactionHash": "0xd44008d098712cbdadf9df77d24f2c71a2623928dec4c684c3c9e50f56130bca",
          "transactionIndex": "0x53",
          "logIndex": "0xb9",
          "removed": false
        }
      ],
      "logsBloom": "0x00000000000100000000001000000000000000000000000000000004080000000000000000000040080000000000000000000100000000000000000000000000000000000000000000000008000000000000000000000000000000000000000000000000020000000001000080000800080000000000100000000810000000000000000001000000000014800000000000000000000000000000000000000000000004000000000200000000000000080000000000400000000004220000000000002002000004000000000000000000000000000010002000001000000020001000000200000000000000000000000004000000000000000000000002000000",
      "type": "0x2",
      "transactionHash": "0xd44008d098712cbdadf9df77d24f2c71a2623928dec4c684c3c9e50f56130bca",
      "transactionIndex": "0x53",
      "blockHash": "0x9976f072126e652211d9079507dffdad20eaaf3365ca32aaedd7654d9f8c0702",
      "blockNumber": "0x9be68c",
      "gasUsed": "0x64f0f",
      "effectiveGasPrice": "0x3ffc81f0",
      "from": "0x7da694e01e71bea0f2cf836f64f8959add5b33ba",
      "to": "0x429ba70129df741b2ca2a85bc3a2a3328e5c09b4",
      "contractAddress": null
    }
  ],
  "libraries": [],
  "pending": [],
  "returns": {},
  "timestamp": 1770549359156,
  "chain": 11155111,
  "commit": "9a6496c"
}