{
  "transactions": [
    {
      "hash": "0x910f32dec54dd172a9f200dc46a9948afc0ab544e4292f0e48c93b757f952f1e",
      "transactionType": "CALL",
      "contractName": null,
      "contractAddress": "0x607c1fd9fd338ec825799a1068551ce19cacbe52",
      "function": "approve(address,uint256)",
      "arguments": [
        "0x000000000022D473030F116dDEE9F6B43aC78BA3",
        "115792089237316195423570985008687907853269984665640564039457584007913129639935"
      ],
      "transaction": {
        "from": "0x2781494e77701a69a39d503624101ac8cc9ddde7",
        "to": "0x607c1fd9fd338ec825799a1068551ce19cacbe52",
        "gas": "0x10c4a",
        "value": "0x0",
        "input": "0x095ea7b3000000000000000000000000000000000022d473030f116ddee9f6b43ac78ba3ffffffffffffffffffffffffffffffffffffffffffffffffffffffffffffffff",
        "nonce": "0x3",
        "chainId": "0xaa36a7"
      },
      "additionalContracts": [],
      "isFixedGasLimit": false
    },
    {
      "hash": "0xe538b60ebf097811184797f0a20dc2497e11ac1a88042a61f1f852f2ab4d7fe6",
      "transactionType": "CALL",
      "contractName": null,
      "contractAddress": "0x000000000022d473030f116ddee9f6b43ac78ba3",
      "function": "approve(address,address,uint160,uint48)",
      "arguments": [
        "0x607c1FD9FD338EC825799A1068551CE19CACBe52",
        "0x429ba70129df741B2Ca2a85BC3A2a3328e5c09b4",
        "1461501637330902918203684832716283019655932542975",
        "281474976710655"
      ],
      "transaction": {
        "from": "0x2781494e77701a69a39d503624101ac8cc9ddde7",
        "to": "0x000000000022d473030f116ddee9f6b43ac78ba3",
        "gas": "0x1112d",
        "value": "0x0",
        "input": "0x87517c45000000000000000000000000607c1fd9fd338ec825799a1068551ce19cacbe52000000000000000000000000429ba70129df741b2ca2a85bc3a2a3328e5c09b4000000000000000000000000ffffffffffffffffffffffffffffffffffffffff0000000000000000000000000000000000000000000000000000ffffffffffff",
        "nonce": "0x4",
        "chainId": "0xaa36a7"
      },
      "additionalContracts": [],
      "isFixedGasLimit": false
    },
    {
      "hash": "0x764170d4e4575722ac842137110a83626eb707db8c014508038e47bbb57d59c7",
      "transactionType": "CALL",
      "contractName": null,
      "contractAddress": "0x7b79995e5f793a07bc00c21412e50ecae098e7f9",
      "function": "approve(address,uint256)",
      "arguments": [
        "0x000000000022D473030F116dDEE9F6B43aC78BA3",
        "115792089237316195423570985008687907853269984665640564039457584007913129639935"
      ],
      "transaction": {
        "from": "0x2781494e77701a69a39d503624101ac8cc9ddde7",
        "to": "0x7b79995e5f793a07bc00c21412e50ecae098e7f9",
        "gas": "0xf9b8",
        "value": "0x0",
        "input": "0x095ea7b3000000000000000000000000000000000022d473030f116ddee9f6b43ac78ba3ffffffffffffffffffffffffffffffffffffffffffffffffffffffffffffffff",
        "nonce": "0x5",
        "chainId": "0xaa36a7"
      },
      "additionalContracts": [],
      "isFixedGasLimit": false
    },
    {
      "hash": "0x4ce67afef9b3cc68f1400628b670f1b871fa209f4861b3e60e267d583a046395",
      "transactionType": "CALL",
      "contractName": null,
      "contractAddress": "0x000000000022d473030f116ddee9f6b43ac78ba3",
      "function": "approve(address,address,uint160,uint48)",
      "arguments": [
        "0x7b79995e5f793A07Bc00c21412e50Ecae098E7f9",
        "0x429ba70129df741B2Ca2a85BC3A2a3328e5c09b4",
        "1461501637330902918203684832716283019655932542975",
        "281474976710655"
      ],
      "transaction": {
        "from": "0x2781494e77701a69a39d503624101ac8cc9ddde7",
        "to": "0x000000000022d473030f116ddee9f6b43ac78ba3",
        "gas": "0x101ee",
        "value": "0x0",
        "input": "0x87517c450000000000000000000000007b79995e5f793a07bc00c21412e50ecae098e7f9000000000000000000000000429ba70129df741b2ca2a85bc3a2a3328e5c09b4000000000000000000000000ffffffffffffffffffffffffffffffffffffffff0000000000000000000000000000000000000000000000000000ffffffffffff",
        "nonce": "0x6",
        "chainId": "0xaa36a7"
      },
      "additionalContracts": [],
      "isFixedGasLimit": false
    },
    {
      "hash": "0x190b4a5c7fc179f22a232bcee46be9ab890a0b5300defd9ee16ead97f1213d08",
      "transactionType": "CALL",
      "contractName": null,
      "contractAddress": "0x429ba70129df741b2ca2a85bc3a2a3328e5c09b4",
      "function": "multicall(bytes[])",
      "arguments": [
        "[0xf7020405000000000000000000000000607c1fd9fd338ec825799a1068551ce19cacbe520000000000000000000000007b79995e5f793a07bc00c21412e50ecae098e7f90000000000000000000000000000000000000000000000000000000000000bb8000000000000000000000000000000000000000000000000000000000000003c0000000000000000000000000000000000000000000000000000000000000000000000000000000000000000000000000000000100000000000000000000000000000000000000000000000000000000000000000000000000000000000000e00000000000000000000000000000000000000000000000000000000000000000, 0xdd46508f000000000000000000000000000000000000000000000000000000000000004000000000000000000000000000000000000000000000000000000000698885f40000000000000000000000000000000000000000000000000000000000000400000000000000000000000000000000000000000000000000000000000000004000000000000000000000000000000000000000000000000000000000000000800000000000000000000000000000000000000000000000000000000000000004020d14140000000000000000000000000000000000000000000000000000000000000000000000000000000000000000000000000000000000000000000000040000000000000000000000000000000000000000000000000000000000000080000000000000000000000000000000000000000000000000000000000000024000000000000000000000000000000000000000000000000000000000000002a0000000000000000000000000000000000000000000000000000000000000030000000000000000000000000000000000000000000000000000000000000001a0000000000000000000000000607c1fd9fd338ec825799a1068551ce19cacbe520000000000000000000000007b79995e5f793a07bc00c21412e50ecae098e7f90000000000000000000000000000000000000000000000000000000000000bb8000000000000000000000000000000000000000000000000000000000000003c0000000000000000000000000000000000000000000000000000000000000000ffffffffffffffffffffffffffffffffffffffffffffffffffffffffffff5038000000000000000000000000000000000000000000000000000000000000afc80000000000000000000000000000000000000000000000000027b69f212163ed0000000000000000000000000000000000000000000000056bc75e2d63100001000000000000000000000000000000000000000000000000002386f26fc100010000000000000000000000001804c8ab1f12e6bbf3894d4083f33e07309d1f38000000000000000000000000000000000000000000000000000000000000018000000000000000000000000000000000000000000000000000000000000000000000000000000000000000000000000000000000000000000000000000000040000000000000000000000000607c1fd9fd338ec825799a1068551ce19cacbe520000000000000000000000007b79995e5f793a07bc00c21412e50ecae098e7f90000000000000000000000000000000000000000000000000000000000000040000000000000000000000000607c1fd9fd338ec825799a1068551ce19cacbe520000000000000000000000001804c8ab1f12e6bbf3894d4083f33e07309d1f3800000000000000000000000000000000000000000000000000000000000000400000000000000000000000007b79995e5f793a07bc00c21412e50ecae098e7f90000000000000000000000001804c8ab1f12e6bbf3894d4083f33e07309d1f38]"
      ],
      "transaction": {
        "from": "0x2781494e77701a69a39d503624101ac8cc9ddde7",
        "to": "0x429ba70129df741b2ca2a85bc3a2a3328e5c09b4",
        "gas": "0x5577e",
        "value": "0x0",
        "input": "0xac9650d800000000000000000000000000000000000000000000000000000000000000200000000000000000000000000000000000000000000000000000000000000002000000000000000000000000000000000000000000000000000000000000004000000000000000000000000000000000000000000000000000000000000001800000000000000000000000000000000000000000000000000000000000000104f7020405000000000000000000000000607c1fd9fd338ec825799a1068551ce19cacbe520000000000000000000000007b79995e5f793a07bc00c21412e50ecae098e7f90000000000000000000000000000000000000000000000000000000000000bb8000000000000000000000000000000000000000000000000000000000000003c0000000000000000000000000000000000000000000000000000000000000000000000000000000000000000000000000000000100000000000000000000000000000000000000000000000000000000000000000000000000000000000000e00000000000000000000000000000000000000000000000000000000000000000000000000000000000000000000000000000000000000000000000000000000000000000000000000000000000000000000000000000000000000464dd46508f000000000000000000000000000000000000000000000000000000000000004000000000000000000000000000000000000000000000000000000000698885f40000000000000000000000000000000000000000000000000000000000000400000000000000000000000000000000000000000000000000000000000000004000000000000000000000000000000000000000000000000000000000000000800000000000000000000000000000000000000000000000000000000000000004020d14140000000000000000000000000000000000000000000000000000000000000000000000000000000000000000000000000000000000000000000000040000000000000000000000000000000000000000000000000000000000000080000000000000000000000000000000000000000000000000000000000000024000000000000000000000000000000000000000000000000000000000000002a0000000000000000000000000000000000000000000000000000000000000030000000000000000000000000000000000000000000000000000000000000001a0000000000000000000000000607c1fd9fd338ec825799a1068551ce19cacbe520000000000000000000000007b79995e5f793a07bc00c21412e50ecae098e7f90000000000000000000000000000000000000000000000000000000000000bb8000000000000000000000000000000000000000000000000000000000000003c0000000000000000000000000000000000000000000000000000000000000000ffffffffffffffffffffffffffffffffffffffffffffffffffffffffffff5038000000000000000000000000000000000000000000000000000000000000afc80000000000000000000000000000000000000000000000000027b69f212163ed0000000000000000000000000000000000000000000000056bc75e2d63100001000000000000000000000000000000000000000000000000002386f26fc100010000000000000000000000001804c8ab1f12e6bbf3894d4083f33e07309d1f38000000000000000000000000000000000000000000000000000000000000018000000000000000000000000000000000000000000000000000000000000000000000000000000000000000000000000000000000000000000000000000000040000000000000000000000000607c1fd9fd338ec825799a1068551ce19cacbe520000000000000000000000007b79995e5f793a07bc00c21412e50ecae098e7f90000000000000000000000000000000000000000000000000000000000000040000000000000000000000000607c1fd9fd338ec825799a1068551ce19cacbe520000000000000000000000001804c8ab1f12e6bbf3894d4083f33e07309d1f3800000000000000000000000000000000000000000000000000000000000000400000000000000000000000007b79995e5f793a07bc00c21412e50ecae098e7f90000000000000000000000001804c8ab1f12e6bbf3894d4083f33e07309d1f3800000000000000000000000000000000000000000000000000000000",
        "nonce": "0x7",
        "chainId": "0xaa36a7"
      },
      "additionalContracts": [],
      "isFixedGasLimit": false
    }
  ],
  "receipts": [
    {
      "status": "0x1",
      "cumulativeGasUsed": "0xc662f4",
      "logs": [
        {
          "address": "0x607c1fd9fd338ec825799a1068551ce19cacbe52",
          "topics": [
            "0x8c5be1e5ebec7d5bd14f71427d1e84f3dd0314c0f7b2291e5b200ac8c7c3b925",
            "0x0000000000000000000000002781494e77701a69a39d503624101ac8cc9ddde7",
            "0x000000000000000000000000000000000022d473030f116ddee9f6b43ac78ba3"
          ],
          "data": "0xffffffffffffffffffffffffffffffffffffffffffffffffffffffffffffffff",
          "blockHash": "0x75690f07352a32e30a5b159f28a82dbba8a9e8a590798bd1b624a60fec099821",
          "blockNumber": "0x9be728",
          "blockTimestamp": "0x698877fc",
          "transactionHash": "0x910f32dec54dd172a9f200dc46a9948afc0ab544e4292f0e48c93b757f952f1e",
          "transactionIndex": "0x59",
          "logIndex": "0xf3",
          "removed": false
        }
      ],
      "logsBloom": "0x00000000000000000000000000000000000000000000000000000000000000000000000000000000000000000000000000000000800000000000000000200000000000000000000000004000000000000000000000000800000800000000000000000000000000000000000000000001000000000000000000000000000000000000000000000000000000000000000000000000000000000000000000000000020000000000000000000000000000000000000000000000000000200000000000000000000000000000000000000000000000000010000000000000000000000010000000000000000000000000000000000000000000000000000012000000",
      "type": "0x2",
      "transactionHash": "0x910f32dec54dd172a9f200dc46a9948afc0ab544e4292f0e48c93b757f952f1e",
      "transactionIndex": "0x59",
      "blockHash": "0x75690f07352a32e30a5b159f28a82dbba8a9e8a590798bd1b624a60fec099821",
      "blockNumber": "0x9be728",
      "gasUsed": "0xb773",
      "effectiveGasPrice": "0x3d763e78",
      "from": "0x2781494e77701a69a39d503624101ac8cc9ddde7",
      "to": "0x607c1fd9fd338ec825799a1068551ce19cacbe52",
      "contractAddress": null
    },
    {
      "status": "0x1",
      "cumulativeGasUsed": "0xc71dbe",
      "logs": [
        {
          "address": "0x000000000022d473030f116ddee9f6b43ac78ba3",
          "topics": [
            "0xda9fa7c1b00402c17d0161b249b1ab8bbec047c5a52207b9c112deffd817036b",
            "0x0000000000000000000000002781494e77701a69a39d503624101ac8cc9ddde7",
            "0x000000000000000000000000607c1fd9fd338ec825799a1068551ce19cacbe52",
            "0x000000000000000000000000429ba70129df741b2ca2a85bc3a2a3328e5c09b4"
          ],
          "data": "0x000000000000000000000000ffffffffffffffffffffffffffffffffffffffff0000000000000000000000000000000000000000000000000000ffffffffffff",
          "blockHash": "0x75690f07352a32e30a5b159f28a82dbba8a9e8a590798bd1b624a60fec099821",
          "blockNumber": "0x9be728",
          "blockTimestamp": "0x698877fc",
          "transactionHash": "0x4ce67afef9b3cc68f1400628b670f1b871fa209f4861b3e60e267d583a046395",
          "transactionIndex": "0x5a",
          "logIndex": "0xf4",
          "removed": false
        }
      ],
      "logsBloom": "0x00010000000000000000000000000000000000000000000000000000000000000000000000000040080000000000000000000000000000000000000000080000000000000000000000000000000000000000000100000000000800000000000000000000000000000000000000000001000000000000000000000800000000000020000000000000000000000000000000000000000000000000000000000000000000000000000000000000000000000000000000000000000000080000000000000000001000000000000000000000000000000000000040000000000000000080000000000000000000000000000000000000000000000000000010000400",
      "type": "0x2",
      "transactionHash": "0x4ce67afef9b3cc68f1400628b670f1b871fa209f4861b3e60e267d583a046395",
      "transactionIndex": "0x5a",
      "blockHash": "0x75690f07352a32e30a5b159f28a82dbba8a9e8a590798bd1b624a60fec099821",
      "blockNumber": "0x9be728",
      "gasUsed": "0xbaca",
      "effectiveGasPrice": "0x3d763e78",
      "from": "0x2781494e77701a69a39d503624101ac8cc9ddde7",
      "to": "0x000000000022d473030f116ddee9f6b43ac78ba3",
      "contractAddress": null
    },
    {
      "status": "0x1",
      "cumulativeGasUsed": "0xc7d28a",
      "logs": [
        {
          "address": "0x7b79995e5f793a07bc00c21412e50ecae098e7f9",
          "topics": [
            "0x8c5be1e5ebec7d5bd14f71427d1e84f3dd0314c0f7b2291e5b200ac8c7c3b925",
            "0x0000000000000000000000002781494e77701a69a39d503624101ac8cc9ddde7",
            "0x000000000000000000000000000000000022d473030f116ddee9f6b43ac78ba3"
          ],
          "data": "0xffffffffffffffffffffffffffffffffffffffffffffffffffffffffffffffff",
          "blockHash": "0x75690f07352a32e30a5b159f28a82dbba8a9e8a590798bd1b624a60fec099821",
          "blockNumber": "0x9be728",
          "blockTimestamp": "0x698877fc",
          "transactionHash": "0x190b4a5c7fc179f22a232bcee46be9ab890a0b5300defd9ee16ead97f1213d08",
          "transactionIndex": "0x5b",
          "logIndex": "0xf5",
          "removed": false
        }
      ],
      "logsBloom": "0x00000000000000000000000000000000000000000000000000000004000000000000000000000000000000000000000000000000800000000000000000200000000000000000000000004000000000000000000000000800000800000000000000000000000000000000000000000001000000000000000000000000000000000000000000000000000000000000000000000000000000000000000000000000020000000000000000000000000000080000000000000000000000000000000000000002000000000000000000000000000000000000000000000000000000000010000000000000000000000000000000000000000000000000000010000000",
      "type": "0x2",
      "transactionHash": "0x190b4a5c7fc179f22a232bcee46be9ab890a0b5300defd9ee16ead97f1213d08",
      "transactionIndex": "0x5b",
      "blockHash": "0x75690f07352a32e30a5b159f28a82dbba8a9e8a590798bd1b624a60fec099821",
      "blockNumber": "0x9be728",
      "gasUsed": "0xb4cc",
      "effectiveGasPrice": "0x3d763e78",
      "from": "0x2781494e77701a69a39d503624101ac8cc9ddde7",
      "to": "0x7b79995e5f793a07bc00c21412e50ecae098e7f9",
      "contractAddress": null
    },
    {
      "status": "0x1",
      "cumulativeGasUsed": "0xc88d48",
      "logs": [
        {
          "address": "0x000000000022d473030f116ddee9f6b43ac78ba3",
          "topics": [
            "0xda9fa7c1b00402c17d0161b249b1ab8bbec047c5a52207b9c112deffd817036b",
            "0x0000000000000000000000002781494e77701a69a39d503624101ac8cc9ddde7",
            "0x0000000000000000000000007b79995e5f793a07bc00c21412e50ecae098e7f9",
            "0x000000000000000000000000429ba70129df741b2ca2a85bc3a2a3328e5c09b4"
          ],
          "data": "0x000000000000000000000000ffffffffffffffffffffffffffffffffffffffff0000000000000000000000000000000000000000000000000000ffffffffffff",
          "blockHash": "0x75690f07352a32e30a5b159f28a82dbba8a9e8a590798bd1b624a60fec099821",
          "blockNumber": "0x9be728",
          "blockTimestamp": "0x698877fc",
          "transactionHash": "0x764170d4e4575722ac842137110a83626eb707db8c014508038e47bbb57d59c7",
          "transactionIndex": "0x5c",
          "logIndex": "0xf6",
          "removed": false
        }
      ],
      "logsBloom": "0x00010000000000000000000000000000000000000000000000000000000000000000000000000042080000000000000000000000000000000000000000080000000000000000000000000040000000000000004000000000000800000000000000000000000000000000000000000001000000000000000000000800000000000020000000000000000000000000000000000000000000000000000000000000000000000000000000000000000000000000000000000000000000080000000000000000000000000000000000000000000000000000000040000000000000000000000000000000000000000000000000000000000000000000000010000400",
      "type": "0x2",
      "transactionHash": "0x764170d4e4575722ac842137110a83626eb707db8c014508038e47bbb57d59c7",
      "transactionIndex": "0x5c",
      "blockHash": "0x75690f07352a32e30a5b159f28a82dbba8a9e8a590798bd1b624a60fec099821",
      "blockNumber": "0x9be728",
      "gasUsed": "0xbabe",
      "effectiveGasPrice": "0x3d763e78",
      "from": "0x2781494e77701a69a39d503624101ac8cc9ddde7",
      "to": "0x000000000022d473030f116ddee9f6b43ac78ba3",
      "contractAddress": null
    },
    {
      "status": "0x1",
      "cumulativeGasUsed": "0xcc3452",
      "logs": [
        {
          "address": "0x429ba70129df741b2ca2a85bc3a2a3328e5c09b4",
          "topics": [
            "0xddf252ad1be2c89b69c2b068fc378daa952ba7f163c4a11628f55a4df523b3ef",
            "0x0000000000000000000000000000000000000000000000000000000000000000",
            "0x0000000000000000000000001804c8ab1f12e6bbf3894d4083f33e07309d1f38",
            "0x0000000000000000000000000000000000000000000000000000000000005aa7"
          ],
          "data": "0x",
          "blockHash": "0x75690f07352a32e30a5b159f28a82dbba8a9e8a590798bd1b624a60fec099821",
          "blockNumber": "0x9be728",
          "blockTimestamp": "0x698877fc",
          "transactionHash": "0xe538b60ebf097811184797f0a20dc2497e11ac1a88042a61f1f852f2ab4d7fe6",
          "transactionIndex": "0x5d",
          "logIndex": "0xf7",
          "removed": false
        },
        {
          "address": "0xe03a1074c86cfedd5c142c4f04f1a1536e203543",
          "topics": [
            "0xf208f4912782fd25c7f114ca3723a2d5dd6f3bcc3ac8db5af63baa85f711d5ec",
            "0xe5520bd37fe51be4fd6b106f76240a885de8ad696f9900d98f88db920d15934f",
            "0x000000000000000000000000429ba70129df741b2ca2a85bc3a2a3328e5c09b4"
          ],
          "data": "0xffffffffffffffffffffffffffffffffffffffffffffffffffffffffffff5038000000000000000000000000000000000000000000000000000000000000afc80000000000000000000000000000000000000000000000000027b69f212163ed0000000000000000000000000000000000000000000000000000000000005aa7",
          "blockHash": "0x75690f07352a32e30a5b159f28a82dbba8a9e8a590798bd1b624a60fec099821",
          "blockNumber": "0x9be728",
          "blockTimestamp": "0x698877fc",
          "transactionHash": "0xe538b60ebf097811184797f0a20dc2497e11ac1a88042a61f1f852f2ab4d7fe6",
          "transactionIndex": "0x5d",
          "logIndex": "0xf8",
          "removed": false
        },
        {
          "address": "0x607c1fd9fd338ec825799a1068551ce19cacbe52",
          "topics": [
            "0xddf252ad1be2c89b69c2b068fc378daa952ba7f163c4a11628f55a4df523b3ef",
            "0x0000000000000000000000002781494e77701a69a39d503624101ac8cc9ddde7",
            "0x000000000000000000000000e03a1074c86cfedd5c142c4f04f1a1536e203543"
          ],
          "data": "0x00000000000000000000000000000000000000000000000001748fb1fe2b2b5e",
          "blockHash": "0x75690f07352a32e30a5b159f28a82dbba8a9e8a590798bd1b624a60fec099821",
          "blockNumber": "0x9be728",
          "blockTimestamp": "0x698877fc",
          "transactionHash": "0xe538b60ebf097811184797f0a20dc2497e11ac1a88042a61f1f852f2ab4d7fe6",
          "transactionIndex": "0x5d",
          "logIndex": "0xf9",
          "removed": false
        }
      ],
      "logsBloom": "0x00000000000000000000001000000000000000000000000000000000080000000000000002000040080000000040000000000100000000000000000000000000000000000000000000000008000000000000000000000000000800000000000000000000020000000001000080000801080000000000100000000810000000000000000001000000000014000000000000000000000000000000000000000000000004000000000000000000000000000000000000400000000004220000000000004002000004000000000000000000000000000010000000001000000020001000000000000000000000000000000004000000000000000000000012000000",
      "type": "0x2",
      "transactionHash": "0xe538b60ebf097811184797f0a20dc2497e11ac1a88042a61f1f852f2ab4d7fe6",
      "transactionIndex": "0x5d",
      "blockHash": "0x75690f07352a32e30a5b159f28a82dbba8a9e8a590798bd1b624a60fec099821",
      "blockNumber": "0x9be728",
      "gasUsed": "0x3a70a",
      "effectiveGasPrice": "0x3d763e78",
      "from": "0x2781494e77701a69a39d503624101ac8cc9ddde7",
      "to": "0x429ba70129df741b2ca2a85bc3a2a3328e5c09b4",
      "contractAddress": null
    }
  ],
  "libraries": [],
  "pending": [],
  "returns": {},
  "timestamp": 1770551291320,
  "chain": 11155111,
  "commit": "9a6496c"
}